:100000000C9458000C9475000C9475000C947500B9
:100010000C9475000C9475000C9475000C9475008C
:100020000C9475000C9475000C9475000C9475007C
:100030000C9475000C9475000C9475000C94440796
:100040000C9405070C9475000C9475000C947500C5
:100050000C9475000C9475000C9475000C9475004C
:100060000C9475000C9475000C9475000C9475003C
:100070000C9475000C9475000C947500FFEA8C5A72
:100080003A24140A040000000204080C101214168A
:1000900016161412100E0A080402000000000000D8
:1000A00002040608080A0A0A0A0A080402010100F2
:1000B00011241FBECFEFD4E0DEBFCDBF11E0A0E022
:1000C000B1E0E8E4F5E102C005900D92AA34B10771
:1000D000D9F723E0AAE4B1E001C01D92AC37B20722
:1000E000E1F70E949F090C94A20A0C94000061158C
:1000F000710531F4433051052CF0CA01039708957E
:10010000CB01089580E090E00895672B19F0CA01B3
:10011000409705C020910401CA01820F911D97FFED
:1001200002C080E090E08F3F910519F014F08FEF4E
:1001300090E00895672B49F4CA0101968F3F91051D
:1001400031F02CF08FEF90E0089580E090E008957A
:100150000895029708959C01220F331FF901E4527C
:10016000FE4F672B61F081E090E091838083F9017D
:10017000E453FE4F118210828FEF90E0089560816A
:100180007181CB010197C19770F56B3071056CF0EF
:10019000F901E453FE4F80819181823091052CF466
:1001A000019691838083CA010895F901E453FE4FBB
:1001B00011821082FB01E358FF4F849190E06F5F42
:1001C0007F4F481759071CF4CA01019608958417F8
:1001D00095071CF4CA0101970895F901E452FE4FF6
:1001E00071836083089580E090E00895CF93CFB746
:1001F000F8946091900182E090E00E94310A609151
:10020000450181E090E00E94310A60918F0180E019
:1002100090E00E94310ACFBFCF910895009741F03E
:10022000EFECF7E03197F1F700C000000197F6CF4F
:10023000089580E090E02FEFFC01E450FE4F208312
:10024000019688309105C1F782E390E00E940E018B
:1002500080E090E0FC01E450FE4F1082019688306F
:100260009105C1F70895CF93DF93EB01BA01DE0149
:10027000AA0FBB1FA158BE4F6D937C93803191058F
:100280006CF4FC01EE0FFF1FEB5DFE4F0190F0815F
:10029000E02DA901CE01DF91CF91099480E090E09B
:1002A000DF91CF9108956230710519F497FF07C06F
:1002B0001CC06130710519F418161906B4F097FFC7
:1002C00003C0919581959109E0914501F0E0E050DE
:1002D000FF4F208130E0821793073CF08F3F91055C
:1002E00031F02CF08FEF90E0089580E090E00895D9
:1002F0002CE1289FA001299F500D112444575D4FE8
:1003000020E030E0FA01E20FF31FA281B381B18354
:10031000A0832E5F3F4F2A313105A1F72CE1289FA2
:10032000F001299FF00D1124E457FD4F738F628F68
:1003300020E030E080E090E0FA01E20FF31F628DF0
:10034000738D008CF18DE02D6E1B7F0B860F971F38
:1003500022503109263E6FEF360771F70895CF928C
:10036000DF92FF920F931F93CF93DF938C018091C5
:100370004501823018F4F8E0FF2E02C0E4E0FE2EC2
:10038000C0905D01D0905E01C601019690935E0120
:1003900080935D01C8010E9478019C01CF2DD0E0BF
:1003A000C601BE010E94A309F80143E0EE0FFF1F42
:1003B0004A95E1F7E80FF91FEE0FFF1FEC5FFD4FC5
:1003C00031832083C80164E0880F991F6A95E1F7A3
:1003D0008C5F9D4F40E050E0BA01E0E0F0E0EC17A8
:1003E000FD078CF4DF01AA0FBB1FA80FB91F0D91E9
:1003F0001C91222717FD2095322F400F511F621F9D
:10040000731F3196ECCF08E0F01202C083E001C008
:1004100082E08A019B0104C03595279517950795C1
:100420008A95D2F7D901C801DF91CF911F910F9121
:10043000FF90DF90CF900895DF92EF92FF920F939D
:100440001F93CF93DF93EC010E94AF01D92ECC0F05
:10045000DD1FFE01E15AFE4FE080F18023E3E2164A
:10046000F10428F0FE01E159FE4F118210828E0145
:1004700001591E4FF801608171819D2D0E94530129
:10048000009781F02D2D2095221F2227221F30E07A
:100490002F5F3F4FF80131832083C15ADE4F19820D
:1004A000188207C0C15ADE4FFFEFEF1AFF0AF98228
:1004B000E882DF91CF911F910F91FF90EF90DF9035
:1004C0000895EF92FF920F931F93CF93DF93EC0168
:1004D0000E941C028C01FE01EE0FFF1FE158FE4F2F
:1004E00091838083CE0184509E4F7C01FC0120814A
:1004F00030E080919001A801BE0190E00E9433019C
:10050000F7018083C801DF91CF911F910F91FF9078
:10051000EF90089524E032E04CE852E080E090E073
:10052000FA01E80FF91F1182108202968C319105B1
:10053000B9F780E090E0F901E80FF91F118210820D
:10054000029680319105B9F7205F3F4F445E5F4FBF
:1005500082E02438380711F708950F931F93CF9343
:10056000DF93EC018B010E94190AB8016C1B7D0B13
:100570006F5F7F4F0E94B7098C0F9D1FDF91CF9156
:100580001F910F9108950E94190A68E070E00E947F
:10059000B70903960895CF93DF93FC01EC53FE4F08
:1005A000672B41F020919001283018F428EC20832B
:1005B00001C040832081222311F02150208320811B
:1005C000211103C04115510579F1EC01CC0FDD1F5C
:1005D000FE01E459FC4F60817181C451DE4F888176
:1005E0009981689F9001699F300D789F300D11248B
:1005F000240F351F2F3F310561F05CF07195619537
:100600007109718360830E94C302998388838FEF8D
:100610000CC037FF0CC071956195710971836083BF
:100620000E94C3029983888380E090E001C0C901E1
:10063000DF91CF910895FC01E454FE4F672B41F008
:100640001082809190018830C0F48FEF90E008957F
:1006500080818F5F821710F480830FC01082809199
:10066000040190E0841795072CF49A01281B390B9C
:10067000C901089580E090E00895CA0108952AE034
:100680000C941B0321E00C941B0323E00C941B032C
:10069000672B31F44D3F510534F4CA010396089598
:1006A00080E090E008958FEF90E00895EF92FF9240
:1006B0000F931F93CF93DF93CCE6D3E00CEE11E0C2
:1006C00092E0E92EF12C0E94190AB7010E94B709A5
:1006D000892B19F08FEF9FEF02C081E090E08993A2
:1006E00099930E94C302F801819391938F01F3E0E3
:1006F000CC37DF0741F7DF91CF911F910F91FF902A
:10070000EF90089580E88093610010926100A895B1
:1007100084B7877F84BF8091600088618093600088
:1007200010926000E4E8F2E080E090E01192DC01D9
:10073000A450BE4F1C92019688309105B9F781E014
:1007400084B99FE395B99FEF9AB91BB897B918B8C8
:1007500011B812B897E890937A0092E094BD20E81F
:1007600027BD85BB90936E0085BD86BB80936F00CF
:100770001092800090938100789482E090E00E9433
:10078000290A803118F48093900102C010929001E0
:1007900081E090E00E94290A843008F082E0809392
:1007A000450180E090E00E94290A823018F480938D
:1007B0008F0102C010928F010E9456030C948A028E
:1007C0002091940130919501232B81F480937C003A
:1007D00080917A00806480937A0080919401909156
:1007E00095010196909395018093940180917A00F0
:1007F00086FD0AC020917800309179001092950111
:1008000010929401C90108958FEF9FEF08951F93EF
:10081000CF93DF93182F20919A0130919B01232BC6
:1008200079F521E030E0082E01C0220F0A94EAF7A2
:1008300028B9109299011092980110929701109284
:10084000960120919A0130919B012F5F3F4F309389
:100850009B0120939A0114C0812F0E94E00397FD11
:1008600022C02091980130919901280F391F3093AF
:100870009901209398012196D0939701C0939601F6
:10088000C0919601D0919701CE30D1052CF318B8C4
:1008900010929B0110929A01809198019091990178
:1008A0009695879502C08FEF9FEFDF91CF911F91B3
:1008B000089583B182958695877091E0892781702C
:1008C00090E00895809190018F5F809390019091C6
:1008D0008F01911105C0883038F010929001089571
:1008E000913011F48031C8F70895CF93811113C06E
:1008F0001092FC018FEF8093FD018093FE01109216
:10090000FF01109200028093010280930202109274
:100910000302CF91089580E090E0FC01E450FE4F87
:100920001082019688309105C1F7CFEFC093FC018A
:1009300084E190E00E940E01C093FD0184E190E00B
:100940000E940E01C093FE0184E190E00E940E011E
:10095000C093FF0184E190E00E940E01C093030266
:1009600084E190E00E940E01C093020284E190E0D5
:100970000E940E01C093010284E190E00E940E01EA
:10098000C093000284E190E0CF910C940E0120E02E
:1009900030E0D901A450BE4F1C922F5F3F4F28304A
:1009A0003105B9F7883028F4E82FF0E0E450FE4F25
:1009B00019C09091930121E0290F20939301933363
:1009C00040F091E020919201921B9093920110923D
:1009D000930188502091920190E0FC01E450FE4F79
:1009E000222319F08FEF808308951082089580915B
:1009F00045018F5F843018F480934501089510926B
:100A00004501089544E050E020E030E090E06FEFD1
:100A1000D901A450BE4FFA01E450FE4F821793074C
:100A20001CF06C93608302C01C9210822F5F3F4FBA
:100A30004F5F5F4F2430310559F7089590915C0165
:100A4000911113C02AE0829FC001112490935B0191
:100A500080935A014093540150935501609356017D
:100A60007093570181E080935C01089581E090913B
:100A70009001983008F480E00895823028F4199BA2
:100A800019C0882319F006C0823021F41A9B15C0C2
:100A9000882311F0833021F41B9B12C0882311F0AE
:100AA000843029F41C9903C084E090E0089580E02C
:100AB00090E0089581E090E0089582E090E008954C
:100AC00083E090E00895CF92DF92EF92FF92209121
:100AD0005C012130F1F1C0905401D0905501E090BB
:100AE0005601F0905701DC01CB018C199D09AE092C
:100AF000BF0984369105A105B1055CF12230D1F41E
:100B0000809152010E943D0520915301892B71F47F
:100B100089E3289F812D1124909152011092520156
:100B20001092530110925C01869515C02F5F20939F
:100B300053010FC080E00E943D058093520188233D
:100B400041F082E080935C01809153018F5F80933C
:100B5000530180E090E0FF90EF90DF90CF900895F8
:100B600080E090E0FC01E450FE4F2081211106C09E
:100B7000019688309105B1F781E0089580E00895ED
:100B80002091900130E0285031092830310548F497
:100B9000F901EE0FFF1FEB5EFE4F0190F081E02D9B
:100BA000099480E090E00895892B11F02898089529
:100BB000289A089520915C012130F9F46093540142
:100BC00070935501809356019093570180915A017B
:100BD00090915B01892B59F0289880915A0190914E
:100BE0005B01019790935B0180935A0108951092E5
:100BF0005C0180E090E00C94D4050895CF93DF93DE
:100C0000843011F0813041F5C62FD0E08091900101
:100C10009E0141E050E060E070E090E00E9433010E
:100C2000809190019E0141E050E061E070E090E031
:100C30000E943301809190019E0141E050E064E008
:100C400070E090E00E943301809190019E0141E0AC
:100C500050E065E070E02AC08250823060F5C62F17
:100C6000D0E0809190019E0141E050E062E070E0B0
:100C700090E00E943301809190019E0141E050E09C
:100C800063E070E090E00E943301809190019E014A
:100C900041E050E066E070E090E00E943301809116
:100CA00090019E0141E050E067E070E090E0DF914C
:100CB000CF910C943301DF91CF9108950F931F933F
:100CC000CF93DF93C0E0D0E0082F10E08091900137
:100CD000980141E050E0BE0190E00E943301FE0126
:100CE000E450FE4F80832196C830D10579F7DF911B
:100CF000CF911F910F910895E0919001E83068F035
:100D0000F0E0EB5FFE4F20811816190634F4822FB5
:100D10000E941E058FEF0C945E060895BF92CF923D
:100D2000DF92EF92FF920F931F93CF93DF936B01AC
:100D30007C010E946305B92EC82FD0E0209709F4EA
:100D40003FC00E94B0058823D9F1C930D10514F005
:100D5000C8E0D0E0CE010E94C0058C01181619062B
:100D600024F4B701A6010E941E05E0919001F0E075
:100D7000E350FF4F8081882339F08FE18C9FB001D1
:100D80008D9F700D112402C06FEF70E017FF0CC033
:100D90008B2DDF91CF911F910F91FF90EF90DF90FE
:100DA000CF90BF900C94FE05862FDF91CF911F91BD
:100DB0000F91FF90EF90DF90CF90BF900C945E0664
:100DC000DF91CF911F910F91FF90EF90DF90CF9027
:100DD000BF900895CF92DF92EF92FF926B017C015A
:100DE00080919001883060F0C701B6010E94DA0559
:100DF000C701B601FF90EF90DF90CF900C948E0664
:100E0000FF90EF90DF90CF9008951F920F920FB652
:100E10000F9211242F938F939F93909191019F5F35
:100E2000909391012091FC0181E0921708F080E0FD
:100E30002091FD01921708F482602091FE01921723
:100E400008F484602091FF01921708F488602091D3
:100E50000002921708F4806120910102921708F4B1
:100E6000806220910202921708F4806420910302AC
:100E7000921708F480688BB99F918F912F910F90F2
:100E80000FBE0F901F9018951F920F920FB60F92E2
:100E900011248F939F93AF93BF9380914A019091B8
:100EA0004B01A0914C01B0914D010196A11DB11DC6
:100EB00080934A0190934B01A0934C01B0934D0154
:100EC000BF91AF919F918F910F900FBE0F901F9088
:100ED00018952FB7F89460914A0170914B01809159
:100EE0004C0190914D012FBF0895CF93DF93CDB763
:100EF000DEB72C970FB6F894DEBF0FBECDBF812CA6
:100F0000912C54011A821982C12CD12C76011D8298
:100F10001E821F821886412C512C32011C861B8692
:100F2000212C312C1C821B822B853C85232B09F024
:100F30004DC08B810E94070497FD0FC0BC018B81BF
:100F40009C810E946102B701A6010E947C064B8130
:100F50005C814F5F5F4F5C834B83C701B6010E948A
:100F6000EA06D701C6012D813E814F815885821B3B
:100F7000930BA40BB50B8C349105A105B10530F191
:100F80004FE751E05E834D8300E010E0C8018450DC
:100F90009E4F9A878987FC012081ED81FE814191D6
:100FA0005191FE83ED8330E080919001B80190E093
:100FB0000E943301E985FA8580830F5F1F4F083057
:100FC000110521F7CD82DE82EF82F886FFEFCF1A7E
:100FD000DF0AEF0AFF0AD701C60184199509A6099D
:100FE000B70985369105A105B105B8F00E945904ED
:100FF0008C010097A1F02114310409F06CC00E940B
:1010000069074B015C012B853C85232B09F060C0EF
:1010100021E030E03C872B875BC0810150C0EB852D
:10102000FC85EF2B09F4FCC02114310409F085C0C4
:101030000E946907681979098A099B094B855C85B3
:101040004130510509F0E1C0693271058105910512
:1010500008F0E0C0809190010E94C70481E090E018
:101060009C878B870115110509F4C7C0232809F453
:10107000C4C02B853C852230310509F099C00E94FF
:101080006907681979098A099B0961357105810524
:10109000910508F48DC080918F010E9475040E9413
:1010A00069074B015C0149815A814F5F5F4F5A8349
:1010B00049832601370183E090E09C878B87EB8191
:1010C000FC81389714F418012FCF1C821B82FBCFB0
:1010D0001A82198205C02B853C85232B09F4A0C0F8
:1010E0008B859C85019709F4B5CFEB85FC853297FC
:1010F00079F501151105C1F421143104A9F02981F4
:101100003A81232B89F40E946907681979098A09B1
:101110009B09683271058105910530F40E94F7043E
:101120000E9469074B015C01809145010E94020504
:1011300042E050E05C874B8795CF4B855C85413022
:10114000510509F470C04B855C8542305105B9F2F8
:101150008B859C85039709F085CF0115110531F525
:10116000232809F44AC0E981FA81EF2B09F045C030
:101170000E946907681979098A099B096832710513
:1011800081059105D0F580918F018F5F823018F431
:1011900080938F0102C010928F0180918F010E9475
:1011A00075040E9469074B015C0127C0232829F1BF
:1011B000E981FA81EF2B09F50E946907681979091D
:1011C0008A099B096932710581059105B0F02B856B
:1011D0003C8522303105A4F40E9469074B015C0173
:1011E00042E050E05C874B870E94190126013701DD
:1011F00081E090E09A83898362CF260137015FCF37
:101200000E94F6001C861B86EFCF613571058105B3
:101210009105E0F00E94F6000E9419011A821982DD
:101220001C861B861FCF0E946907681979098A09E5
:101230009B09683271058105910508F00BCF0E946A
:1012400062040E9469074B015C0104CF8B859C8579
:10125000029709F469CF7CCFAF92BF92CF92DF9211
:10126000EF92FF920F931F93CF93DF9300D0CDB7F0
:10127000DEB75C016B0161157105C1F149835A83C9
:101280000E9469077501EE0CFF1CEE0CFF1CF701B4
:10129000E456FE4F008111812281338149815A81B8
:1012A000601771078207930721F08A01005F1F4FC3
:1012B00007C04115510511F08A0102C000E110E09C
:1012C00022E0B601C5010E941B030E946907F701D5
:1012D000E456FE4F6083718382839383C8010F3F7E
:1012E000110501F1FCF08FEF90E01CC09A0164E061
:1012F000359527956A95E1F72730310514F026E0FA
:1013000030E060E070E0C5010F900F90DF91CF9169
:101310001F910F91FF90EF90DF90CF90BF90AF9013
:101320000C941B030F900F90DF91CF911F910F91A1
:10133000FF90EF90DF90CF90BF90AF9008950E9404
:1013400082030E947507AA1BBB1B51E107C0AA1F9D
:10135000BB1FA617B70710F0A61BB70B881F991F56
:101360005A95A9F780959095BC01CD01089597FBFA
:10137000072E16F4009407D077FD09D00E94A30928
:1013800007FC05D03EF4909581959F4F0895709588
:1013900061957F4F08958F929F92AF92BF92CF92A7
:1013A000DF92EF92FF92CF93DF93EC016881798116
:1013B0008A819B81611571058105910521F464E2A3
:1013C00079ED8BE597E02DE133EF41E050E00E94AD
:1013D0003F0A49015A019B01AC01A7EAB1E40E940E
:1013E0005E0A6B017C01ACEEB4EFA50194010E9492
:1013F0006C0AC60ED71EE81EF91EF7FE06C081E075
:10140000C81AD108E10880E8F80AC882D982EA82BD
:10141000FB82C6019F77DF91CF91FF90EF90DF9025
:10142000CF90BF90AF909F908F9008950E94CB096E
:10143000089586E491E00E94CB090895A0E0B0E011
:101440008093460190934701A0934801B0934901CE
:101450000895F999FECF92BD81BDF89A992780B57C
:101460000895262FF999FECF1FBA92BD81BD20BDE8
:101470000FB6F894FA9AF99A0FBE01960895052EC0
:1014800097FB1EF400940E94560A57FD07D00E9455
:10149000710A07FC03D04EF40C94560A50954095FF
:1014A000309521953F4F4F4F5F4F08959095809510
:1014B000709561957F4F8F4F9F4F08950E94930ABB
:1014C000A59F900DB49F900DA49F800D911D112498
:1014D0000895B7FF0C945E0A0E945E0A821B930B6C
:1014E0000895A1E21A2EAA1BBB1BFD010DC0AA1F65
:1014F000BB1FEE1FFF1FA217B307E407F50720F07D
:10150000A21BB30BE40BF50B661F771F881F991FF7
:101510001A9469F760957095809590959B01AC0140
:10152000BD01CF010895A29FB001B39FC001A39F49
:10153000700D811D1124911DB29F700D811D11240C
:08154000911D0895F894FFCFFE
:1015480064322314010000000100010000040404B7
:101558000408040404A800A800A900A900A900A977
:1015680000A900A900420345037700AB00CB022C79
:10157800099A00850042034503420342034203CB14
:0A15880002AB003F03020100000067
:00000001FF
