:100000000C9458000C9475000C9475000C947500B9
:100010000C9475000C9475000C9475000C9475008C
:100020000C9475000C9475000C9475000C9475007C
:100030000C9475000C9475000C9475000C948B074F
:100040000C944C070C9475000C9475000C9475007E
:100050000C9475000C9475000C9475000C9475004C
:100060000C9475000C9475000C9475000C9475003C
:100070000C9475000C9475000C947500FFEA8C5A72
:100080003A24140A040000000204080C101214168A
:1000900016161412100E0A080402000000000000D8
:1000A00002040608080A0A0A0A0A080402010100F2
:1000B00011241FBECFEFD4E0DEBFCDBF11E0A0E022
:1000C000B1E0E0E9F6E102C005900D92AA34B10773
:1000D000D9F723E0AAE4B1E001C01D92A637B20728
:1000E000E1F70E94ED090C94460B0C940000672B7D
:1000F00089F0880F991FFC01EB56FE4F21E030E09C
:1001000031832083FC01EB57FE4F118210828FEF69
:1001100090E00895FC01EE0FFF1FEB56FE4F20818B
:100120003181B9016150710961337105D8F52B3006
:100130003105ACF0FC01EE0FFF1FEB57FE4F608165
:100140007181623071055CF4880F991FFC01EB57D7
:10015000FE4F6F5F7F4F71836083CA010895FC017A
:10016000EE0FFF1FEB57FE4F11821082F901E3588B
:10017000FF4FE491F0E04E175F071CF4CA010196AF
:100180000895E417F5071CF4CA0101970895DC01EE
:10019000AA0FBB1FAB56BE4F2F5F3F4F2D933C9313
:1001A000CF01089580E090E008956115710531F464
:1001B000433051052CF0CA0103970895CB010895EF
:1001C00080E090E00895672B19F0CA01409705C0C0
:1001D00020910801CA01820F911D992314F480E037
:1001E00090E08F3F910519F014F08FEF90E00895A3
:1001F000672B49F4CA0101968F3F910531F02CF02D
:100200008FEF90E0089580E090E0089508950297C0
:100210000895CF93CFB7F8946091E50182E090E024
:100220000E94D50A6091490181E090E00E94D50AC0
:100230006091E40180E090E00E94D50ACFBFCF91A9
:100240000895009741F0EFECF7E03197F1F700C027
:1002500000000197C1F7089580E090E02FEFFC01C6
:10026000EA50FE4F2083019688309105C1F782E362
:1002700090E00E94210180E090E0FC01EA50FE4FF6
:100280001082019688309105C1F70895CF93DF93CE
:10029000FB01EE0FFF1FEC52FE4F51834083803174
:1002A00091057CF4EA01DB01FC01EE0FFF1FE75D25
:1002B000FE4F0190F081E02DA901BE01CD0109950D
:1002C00002C080E090E0DF91CF9108956230710527
:1002D00019F499233CF41FC06130710519F4181604
:1002E0001906E4F09C01992324F422273327281BC4
:1002F000390BE0914901F0E0EC5FFE4F808190E026
:100300002817390774F0C9012F3F310561F05CF0FF
:100310008FEF90E0089580E090E0089580E090E015
:10032000089580E090E00895CF93DF932CE1289F1B
:10033000F001299FF00D1124EF01CA57DD4FAF01E5
:1003400040565D4FDE0112962D913C9113972D93EF
:100350003D93A417B507B9F72CE1289FD001299F39
:10036000B00D1124AA57BD4F5B967C936E935A979C
:10037000E056FD4F80E090E0208131815291429122
:10038000241B350B820F931FEC17FD07A9F7DF9194
:10039000CF910895CF92DF92EF92FF921F93CF9368
:1003A000DF93EC01809149018230B8F014E016C06F
:1003B00041915191052E000C660B770BC40ED51E92
:1003C000E61EF71E2F5F3F4F2A173B078CF31830AE
:1003D00011F082E037C083E035C018E0C090B20170
:1003E000D090B301C60101969093B3018093B201FE
:1003F000CE010E9494017C01A12FB0E0C6019D01B5
:10040000B9010E945D0AFE01EE0FFF1FEE0FFF1FF4
:10041000EE0FFF1FE80FF91FEE0FFF1FE250FE4F18
:10042000F182E082D901FE01E295F295F07FFE278C
:10043000E07FFE27E250FE4FC12CD12C760120E058
:1004400030E0B6CFA701960104C055954795379582
:1004500027958A95D2F7DA01C901DF91CF911F91D3
:10046000FF90EF90DF90CF900895FF920F931F932E
:10047000CF93DF93EC010E94CA01F92EFE01EE0F2B
:10048000FF1FEC54FE4F008111810333110538F03A
:10049000FE01EE0FFF1FEC53FE4F11821082FE0192
:1004A000EE0FFF1FEC53FE4F608171819F2D0E9464
:1004B0006601009799F0FF1CFF24FF1C22E030E04A
:1004C0002F193109CC0FDD1FFE01EC53FE4F318394
:1004D0002083CC54DE4F1982188208C0CC0FDD1F58
:1004E000CC54DE4F0F5F1F4F19830883DF91CF91EC
:1004F0001F910F91FF900895EF92FF920F931F931A
:10050000CF93DF93EC010E9435028C01FE01EE0FC8
:10051000FF1FEC52FE4F91838083CE018A509E4F85
:100520007C01FC01208130E08091E501A801BE0141
:1005300090E00E944601F7018083C801DF91CF91CE
:100540001F910F91FF90EF900895AEEFB1E0E6E8B4
:10055000F2E046E653E012C011921192E817F90753
:10056000D9F79D01205F3F4F1D921D92A217B3073F
:10057000D9F7D901FC014817590719F0CF014C965A
:10058000EBCF08950E94BD0A87709078992324F4D8
:100590000197886F9F6F019603960895CF93DF931D
:1005A000672B41F02091E501283058F0FC01E35819
:1005B000FE4F4083FC01E358FE4F2081222349F087
:1005C00001C028EC2150FC01E358FE4F208321118B
:1005D00004C04115510509F445C09C01220F331F89
:1005E000F901EA59FC4F60817181F901EA51FE4F2E
:1005F0000190F081E02D6E9F90016F9F300D7E9FE6
:10060000300D1124420F531F4F3F5105A9F0A4F0A4
:10061000EC01CC0FDD1FFE01EA59FC4F719561958D
:100620007109718360830E94C202CA51DE4F9983AF
:1006300088838FEF90E01BC05523BCF4EC01CC0FF6
:10064000DD1FFE01EA59FC4F7195619571097183B7
:1006500060830E94C202CA51DE4F9983888380E082
:1006600090E005C080E090E002C0842F952FDF91DC
:10067000CF910895672B51F0FC01EB58FE4F10828B
:100680008091E5018830F0F0CA010895FC01EB5833
:10069000FE4F30813F5F321730F4FC01EB58FE4FC4
:1006A0003083CA010895FC01EB58FE4F10828091FF
:1006B000080190E08417950744F49A01281B390B30
:1006C000C90108958FEF90E0089580E090E00895CB
:1006D0002AE00E943A03089521E00E943A03089517
:1006E00023E00E943A030895AF92BF92CF92DF9227
:1006F000EF92FF920F931F93CF93DF93C6E6D3E061
:1007000006EE11E00F2EF6E7EF2EF3E0FF2EF02DB0
:10071000AA24AA94BB24BA94CC24C394D12C0E94BA
:10072000BD0A81709078992324F401978E6F9F6F92
:100730000196892B19F48C2D9D2D02C08A2D9B2D9D
:10074000899399930E94C202F801819391938F013A
:10075000CE15DF0521F7DF91CF911F910F91FF900B
:10076000EF90DF90CF90BF90AF900895E1E6F0E07A
:1007700080E880831082A89584B7877F84BFE0E6F5
:10078000F0E08081886180831082EEE7F2E080E013
:1007900090E01192DC01AA50BE4F1C920196883065
:1007A0009105B9F781E084B99FE395B99FEF9AB9B4
:1007B0001BB897B918B811B812B897E890937A0097
:1007C00092E094BD20E827BD85BB90936E0085BD67
:1007D00086BB80936F001092800090938100789484
:1007E00082E090E00E94CD0A803118F48093E50108
:1007F00002C01092E50181E090E00E94CD0A8430B1
:1008000018F48093490103C082E08093490180E09D
:1008100090E00E94CD0A823018F48093E40102C077
:100820001092E4010E9474030E94A5020895209191
:100830004D0130914E01232B81F480937C00EAE737
:10084000F0E080818064808380914D0190914E0121
:10085000019690934E0180934D0180917A0086FD20
:100860000BC0209178003091790010924E011092C7
:100870004D01822F932F08958FEF9FEF08951F93BF
:10088000CF93DF93182FC0915301D091540120973B
:10089000D9F481E090E0012E02C0880F991F0A94DC
:1008A000E2F788B910925201109251011092500152
:1008B00010924F01809153019091540101969093B1
:1008C00054018093530107C0C0914F01D091500152
:1008D000CE30D105BCF4812F0E9417049923F4F087
:1008E0002091510130915201820F931F9093520138
:1008F000809351012196D0935001C0934F01CE3087
:10090000D1054CF318B81092540110925301809104
:100910005101909152019695879502C08FEF9FEFFC
:10092000DF91CF911F91089583B18295869587704D
:1009300091E08927817090E008958091E5018F5FB3
:100940008093E5019091E401911105C0883048F051
:100950001092E5010895913021F4803110F0109249
:10096000E50108951F93CF93DF9381110CC0E6EF4B
:10097000F1E010828FEF818382831382148285835A
:100980008683178235C080E090E0FC01EA50FE4F7C
:100990001082019688309105C1F7C6EFD1E01FEFB4
:1009A000188384E190E00E942101198384E190E0A2
:1009B0000E9421011A8384E190E00E9421011B839F
:1009C00084E190E00E9421011F8384E190E00E9475
:1009D00021011E8384E190E00E9421011D8384E1B6
:1009E00090E00E9421011C8384E190E00E9421019B
:1009F000DF91CF911F91089520E030E0F901EA5096
:100A0000FE4F10822F5F3F4F28303105B9F78830F5
:100A100038F4E82FF0E0EA50FE4F8FEF808308951E
:100A200090914C0121E0290F20934C01933340F029
:100A300020914B0191E0921B90934B0110924C013D
:100A4000E8EFE80F80914B01882331F0F0E0EA50A5
:100A5000FE4F8FEF80830895F0E0EA50FE4F108242
:100A60000895809149018F5F843018F48093490183
:100A7000089510924901089544E050E020E030E0EC
:100A800090E06FEF821793074CF0F901EA50FE4FA8
:100A90006083FA01EA50FE4F608308C0F901EA5012
:100AA000FE4F1082FA01EA50FE4F10822F5F3F4F37
:100AB0004F5F5F4F2430310529F708959091B101C0
:100AC00091111BC090E09C01220F331F880F991FCA
:100AD000880F991F880F991F820F931F9093B00161
:100AE0008093AF014093AB015093AC016093AD0193
:100AF0007093AE0181E08093B1010895823010F4CB
:100B0000199B15C0982F9D7F21F41A9B13C0882331
:100B100001F1833029F41B9910C083E090E008951F
:100B2000843071F41C990FC084E090E0089581E056
:100B300090E0089582E090E0089580E090E00895CC
:100B400080E090E0089580E090E0089583E090E0F8
:100B500008951B9BFBCFE6CFCF92DF92EF92FF92DF
:100B60002091B101213019F480E090E047C0C0909D
:100B7000AB01D090AC01E090AD01F090AE01DC0192
:100B8000CB018C199D09AE09BF0984369105A105D9
:100B9000B1051CF480E090E031C02230F1F4809186
:100BA000A9010E947E05892B81F48091AA0199E315
:100BB000899F812D11249091A9011092A901109271
:100BC000AA011092B101869519C08091AA018F5F88
:100BD0008093AA0180E090E011C080E00E947E0531
:100BE0008093A901882341F082E08093B101809134
:100BF000AA018F5F8093AA0180E090E0FF90EF90C0
:100C0000DF90CF9008958091F60181110FC021E00F
:100C100030E0F901EA50FE4F9081911108C02F5F3A
:100C20003F4F28303105A9F781E0089580E008950D
:100C30002091E50130E0285031092830310550F489
:100C4000220F331FF901E75EFE4F0190F081E02D86
:100C50000995089580E090E00895892B11F0289877
:100C60000895289A08952091B101213021F5DC01E1
:100C7000CB018093AB019093AC01A093AD01B093F5
:100C8000AE018091AF019091B001892B71F081E0AC
:100C900090E00E942D068091AF019091B0010197E4
:100CA0009093B0018093AF0108951092B10180E05C
:100CB00090E00E942D060895CF93DF93843011F0C9
:100CC000813059F5C62FD0E08091E5019E0141E0C9
:100CD00050E060E070E090E00E9446018091E50104
:100CE0009E0141E050E061E070E090E00E9446012A
:100CF0008091E5019E0141E050E064E070E090E009
:100D00000E9446018091E5019E0141E050E065E0CE
:100D100070E090E00E9446012DC08250823050F574
:100D2000C62FD0E08091E5019E0141E050E062E0F5
:100D300070E090E00E9446018091E5019E0141E053
:100D400050E063E070E090E00E9446018091E50190
:100D50009E0141E050E066E070E090E00E944601B4
:100D60008091E5019E0141E050E067E070E090E095
:100D70000E944601DF91CF9108950F931F93CF9367
:100D8000DF93C0E0D0E0082F10E08091E5019801EA
:100D900041E050E0BE0190E00E944601FE01EA50B1
:100DA000FE4F80832196C830D10579F7DF91CF912E
:100DB0001F910F910895E091E501E83060F0181659
:100DC00019064CF4F0E0E75FFE4F80810E945E055B
:100DD0008FEF0E94BD060895BF92CF92DF92EF92EF
:100DE000FF920F931F93CF93DF936B017C010E94BF
:100DF000AC05B92EC82FD0E01C161D0674F50E9454
:100E00000306882351F1C930D10514F0C8E0D0E0C1
:100E1000CE010E9418068C011816190624F4B70199
:100E2000A6010E945E05E091E501F0E0EF5FFE4F54
:100E30008081882339F02FE12C9FC0012D9F900DD8
:100E4000112402C08FEF90E011232CF4682F8B2D1A
:100E50000E945C0602C00E94BD06DF91CF911F91E7
:100E60000F91FF90EF90DF90CF90BF900895CF92B9
:100E7000DF92EF92FF922091E501283040F06B0164
:100E80007C010E943306C701B6010E94EC06FF9068
:100E9000EF90DF90CF9008951F920F920FB60F92B0
:100EA00011242F938F939F9380914A018F5F80939A
:100EB0004A012091F60191E0821708F090E020911C
:100EC000F701821708F492602091F801821708F464
:100ED00094602091F901821708F498602091FA013A
:100EE000821708F490612091FB01821708F4906248
:100EF0002091FC01821708F490642091FD01821773
:100F000008F490689BB99F918F912F910F900FBE1D
:100F10000F901F9018951F920F920FB60F921124E9
:100F20008F939F93AF93BF938091A5019091A6015A
:100F3000A091A701B091A8010196A11DB11D8093B8
:100F4000A5019093A601A093A701B093A801BF911A
:100F5000AF919F918F910F900FBE0F901F9018959A
:100F60002FB7F8946091A5017091A6018091A70117
:100F70009091A8012FBF0895CF93DF93CDB7DEB72F
:100F80002E970FB6F894DEBF0FBECDBF19861A8616
:100F90001B861C8618861F821E821D82212C312CE6
:100FA000412C512C320119821A821B821C82812C05
:100FB000912C5401C12CD12C2114310409F04DC0C5
:100FC0008C2D0E943F0499230CF4ABC1BC01C601D7
:100FD0000E947C02B501A4010E94DB062FEFC21A19
:100FE000D20AC501B4010E943707D501C401298185
:100FF0003A814B815C81821B930BA40BB50B8C3423
:101000009105A105B10548F10F2EF4EDEF2EF1E0A9
:10101000FF2EF02D1A82198209811A810A501E4F63
:10102000F8012081F701419151917F0130E08091D9
:10103000E50169817A8190E00E944601F801808390
:1010400029813A812F5F3F4F3A8329832830310528
:1010500019F789829A82AB82BC823FEF831A930A86
:10106000A30AB30AD501C40184199509A609B709D1
:1010700085369105A105B10508F44DC10E9494047F
:101080009E878D87892B09F469C14D815E81452B2F
:1010900071F40E94B00769877A878B879C87211437
:1010A000310409F053C122242394312C4FC121145F
:1010B000310409F458C15AC18D819E81892B09F0F0
:1010C0005AC10E94B007DC01CB0129853A854B85C6
:1010D0005C85821B930BA40BB50B31E02316310406
:1010E00009F062C189329105A105B10508F455C125
:1010F0000E9409010E942C0118861F8234C10E949F
:10110000B007DC01CB0129853A854B855C85821BC4
:10111000930BA40BB50B8897A105B10558F40E9459
:101120009D040E94B00769877A878B879C8702C0DD
:1011300018861F828091E5010E94FC0422242394DA
:10114000312C6AC032E02316310469F54D855E8585
:10115000452B01F58D819E81892BE1F0EF81F8858A
:10116000EF2BC1F40E94B007DC01CB0129853A8541
:101170004B855C85821B930BA40BB50B8897A1054F
:10118000B10540F40E9431050E94B00769877A8753
:101190008B879C87809149010E943C05689422249A
:1011A00021F8312C39C033E023163104A9F54D85DF
:1011B0005E85452B09F005C18D819E81892B09F43F
:1011C000E0C0EF81F885EF2B09F0DBC00E94B0078B
:1011D000DC01CB0129853A854B855C85821B930B0D
:1011E000A40BB50B8897A105B10508F0CAC0809182
:1011F000E4018F5F823018F48093E40102C0109202
:10120000E4018091E4010E94B2040E94B007698762
:101210007A878B879C87B5C04D855E85452B09F401
:101220005FC08D819E81892B09F461C092E02916EF
:10123000310431F50E94B007DC01CB0129853A85E4
:101240004B855C85821B930BA40BB50B81359105F7
:10125000A105B105A8F08091E4010E94B2040E94AA
:10126000B00769877A878B879C874F8158854F5F46
:101270005F4F58874F830F2EF3E02F2EF02D312C28
:101280008F819885892BD1F50E94B007DC01CB01B5
:1012900029853A854B855C85821B930BA40BB50B86
:1012A0008997A105B10588F132E0231631040CF0CD
:1012B0006FC00E94B00769877A878B879C87689484
:1012C000222421F8312C0E942C014D855E855E83FD
:1012D0004D832401350181E090E098878F831BC006
:1012E000ED85FE85FE83ED832401350114C02D8537
:1012F0003E853E832D83240135010DC04D855E85DD
:101300005E834D832401350106C08D859E859E83B5
:101310008D832401350198E0C916D1040CF44CCE1C
:1013200049CEC501B4010E943707D501C401298106
:101330003A814B815C81821B930BA40BB50B8C34DF
:101340009105A105B10508F05FCE87CE31E02316E7
:10135000310409F4EDCE18861F82F4CE2114310435
:1013600009F4F0CEA9CE212C312C1DCF41E024165A
:10137000310409F5DFCE51E02516310409F0E2CE43
:10138000BECE8D859E859E838D8324013501C3CF7E
:101390000E940901212C312C96CF81359105A105A0
:1013A000B10508F0A5CEC6CE81359105A105B105E0
:1013B00008F09ECEC7CE92E02916310409F4EACE99
:1013C000F2CEED81FE81EF2B09F05ACF2D853E85BF
:1013D0003E832D83240135019ECF0E94B6030E94D7
:1013E000BC078F929F92AF92BF92CF92DF92EF9203
:1013F000FF920F931F93CF93DF93EC016B018A0150
:10140000672BD1F10E94B007FE01EE0FFF1FEE0F18
:10141000FF1FEB5AFE4F80809180A280B380681539
:1014200079058A059B0529F0780180E1E80EF11C19
:1014300009C00115110529F46894EE24E4F8F12C93
:1014400001C0780122E0A801B601CE010E943A0352
:101450000E94B007CC0FDD1FCC0FDD1FCB5ADE4F33
:10146000688379838A839B83C7018F3F9105C1F08D
:10147000BCF08FEF90E014C09A0135952795359513
:10148000279535952795359527952730310514F003
:1014900026E030E0A80160E070E0CE010E943A034F
:1014A000DF91CF911F910F91FF90EF90DF90CF9040
:1014B000BF90AF909F908F900895AA1BBB1B51E1E6
:1014C00007C0AA1FBB1FA617B70710F0A61BB70BB4
:1014D000881F991F5A95A9F780959095BC01CD0159
:1014E00008958F929F92AF92BF92CF92DF92EF9228
:1014F000FF92CF93DF93EC01688179818A819B8190
:10150000611571058105910521F464E279ED8BE5A2
:1015100097E02DE133EF41E050E00E94E30A4901FA
:101520005A019B01AC01A7EAB1E40E94020B6B01D6
:101530007C01ACEEB4EFA50194010E94100BDC011C
:10154000CB018C0D9D1DAE1DBF1DB7FF03C00197C4
:10155000A109B04888839983AA83BB839F77DF91D1
:10156000CF91FF90EF90DF90CF90BF90AF909F9082
:101570008F9008950E94710A089580E091E00E9482
:10158000710A0895A0E0B0E08093000190930101FA
:10159000A0930201B09303010895F999FECF92BD83
:1015A00081BDF89A992780B50895262FF999FECF25
:1015B0001FBA92BD81BD20BD0FB6F894FA9AF99A70
:1015C0000FBE01960895052E97FB1EF400940E940D
:1015D000FA0A57FD07D00E94150B07FC03D04EF402
:1015E0000C94FA0A50954095309521953F4F4F4FF6
:1015F0005F4F089590958095709561957F4F8F4FBF
:101600009F4F08950E94370BA59F900DB49F900D9A
:10161000A49F800D911D11240895B7FF0C94020B17
:101620000E94020B821B930B0895A1E21A2EAA1BA3
:10163000BB1BFD010DC0AA1FBB1FEE1FFF1FA21782
:10164000B307E407F50720F0A21BB30BE40BF50B7F
:10165000661F771F881F991F1A9469F76095709508
:10166000809590959B01AC01BD01CF010895A29F8B
:10167000B001B39FC001A39F700D811D1124911D66
:10168000B29F700D811D1124911D0895F894FFCF14
:101690000100000064322314010000000100010079
:1016A00000040404040804040406010601070107F9
:1016B0000107010701070107016C037003D50077DB
:1016C00000CE02F109F800E3006C0370036C036CB8
:0A16D000036C03CE027700680302EA
:00000001FF
